:1000000012C021C020C01FC01EC01DC01CC0A5C082
:10001000C0C019C018C017C016C015C014C013C086
:1000200012C011C010C011241FBECFE5D2E0DEBF48
:10003000CDBF10E0A0E6B0E001C01D92A838B10726
:10004000E1F725D04DC1DCCF87B980EC86B900003F
:1000500000003699FECF24B135B1932F80E030E017
:10006000282B392B822F932F08958FE987B91B9A5C
:10007000000000003699FECF24B135B11B98932FB4
:1000800080E030E0282B392B822F932F08951F9387
:10009000BE9AC69A789486EC86B93699FECF86E2E7
:1000A00011D052D0882361F03BD08F3321F4C69811
:1000B000DCDF192F02C0C8DF192F22D0812F20D0FA
:1000C0000000EFCF10928500109274001092630030
:1000D000109262008093610087B3856087BBC29AEB
:1000E000C09AB89888EA8DB980EF8EB908952091AA
:1000F00062009091630081E0291709F480E008957F
:10010000209162002F5F2F70909163002917E1F317
:10011000E4E6F0E0E20FF11D808320936200089591
:1001200090917400809185009817D1F3809185009B
:100130008F5F8F708093850080918500E5E7F0E008
:10014000E80FF11D80810895209174009091850041
:1001500081E0291709F480E008951F920F920FB6ED
:100160000F9211248F9310926000B898B29B02C036
:10017000B09BFCCFB09903C088EF8DB902C088EA6C
:100180008DB980EF8EB98F910F900FBE0F901F9099
:1001900018951F920F920FB60F9211242F933F9331
:1001A0004F935F936F937F938F939F93AF93BF937F
:1001B000EF93FF9380916000823009F45CC083303C
:1001C00030F4882369F0813009F079C034C084307C
:1001D00009F459C0843038F1853009F070C05AC034
:1001E0008FB1882331F09FB1969580916100981767
:1001F000A9F4E0918600F0918700309709F0099505
:10020000789B04C081E08093600003C084E0809309
:1002100060001FB8B89A8EE78EB951C088EA8DB9D0
:1002200080E78EB94CC08FB1882329F088EA8DB958
:1002300080E78EB944C09091620080916300981766
:10024000A9F0809163008F5F8F708093630080912D
:100250006300E4E6F0E0E80FF11D80818FB982E0F1
:1002600080936000B89A80E78EB929C088EA8DB97A
:1002700080E78EB924C083E080936000B8981FB8EF
:100280008EE78EB91CC085E080936000B89880E747
:100290008EB915C0809174008F5F8F708093740049
:1002A000909174008FB1E5E7F0E0E90FF11D8083D4
:1002B00084E0809360001FB8B89A8EE78EB9FF91F2
:1002C000EF91BF91AF919F918F917F916F915F91CE
:1002D0004F913F912F910F900FBE0F901F90189547
:0402E000F894FFCFC0
:00000001FF
